:100000000C942A000C9434000C9434000C943400AA
:100010000C9434000C9434000C9434000C94340090
:100020000C9434000C9434000C9434000C94340080
:100030000C9434000C9434000C9434000C94340070
:100040000C9434000C9434000C9434000C94340060
:100050000C94340011241FBECFE5D8E0DEBFCDBF25
:100060000E9436000C944A000C9400008FEF8ABB6B
:1000700080E090E020E030E08BBBE7EAF1E63197EA
:10008000F1F700C0000001968F3F9105A9F3A0F39E
:08009000C901F2CFF894FFCF83
:00000001FF
